:020000040800F2
:10000000000008242D14010881140108811401083E
:100010008114010881140108811401080000000006
:100020000000000000000000000000008114010832
:10003000811401080000000081140108A7E70008EE
:100040008114010881140108811401088114010838
:100050008114010881140108D9E80008DFE80008CC
:10006000E5E80008EBE80008F1E80008753C000846
:10007000813C0008811401088D3C0008993C00086F
:1000800081140108811401088114010881140108F8
:10009000811401088114010881140108F7E800089F
:1000A00081140108D5D4000881140108E9D400089E
:1000B000EDD4000801D5000815D50008A94C0008AA
:1000C000B54C0008C14C0008CD4C00088114010853
:1000D0008114010885F300089DF30008B9F30008B6
:1000E0001FE9000881140108000000009DD50008E8
:1000F00065D50008B1D5000889D50008811401082C
:10010000811401088114010829D50008811401080F
:10011000D5F30008EDF300083DD5000851D50008DF
:100120008114010881140108811401088114010857
:100130008114010881140108811401088114010847
:1001400000000000000000000000000000000000AF
:1001500081140108811401088114010805F40008C4
:10016000D94C0008E54C00088114010881140108ED
:100170008114010881140108811401088114010807
:10018000811401088114010835F400084DF40008B9
:1001900081140108811401088114010881140108E7
:1001A00081140108811401088114010881140108D7
:1001B000B53700088114010881140108F14C0008CA
:1001C0000D4D0008811401088114010881140108F3
:1001D0008D000108810001088114010881140108C3
:1001E0008114010881140108811401088114010897
:1001F0008114010881140108811401088114010887
:100200008114010881140108811401088114010876
:10021000C5D50008D9D50008EDD50008811401081E
:1002200081140108811401088114010800000000F4
:1002300081140108811401080000000081140108E4
:100240008114010881140108811401088114010836
:100250008114010881140108811401088114010826
:100260008114010881140108811401088114010816
:1002700081140108811401081DF400080000000029
:100280008114010881140108811401080000000094
:080290000000000081140108C8
:10029800034613F8012B002AFBD1181A01387047BE
:1002A80081F0004102E000BF83F0004330B54FEA1F
:1002B80041044FEA430594EA050F08BF90EA020F8C
:1002C8001FBF54EA000C55EA020C7FEA645C7FEA1F
:1002D800655C00F0E2804FEA5454D4EB5555B8BF42
:1002E8006D420CDD2C4480EA020281EA030382EAB3
:1002F800000083EA010180EA020281EA0303362D45
:1003080088BF30BD11F0004F4FEA01314FF4801C17
:100318004CEA113102D0404261EB410113F0004F29
:100328004FEA03334CEA133302D0524263EB4303E0
:1003380094EA050F00F0A780A4F10104D5F1200E7E
:100348000DDB02FA0EFC22FA05F2801841F10001D9
:1003580003FA0EF2801843FA05F359410EE0A5F1AD
:1003680020050EF1200E012A03FA0EFC28BF4CF0DE
:10037800020C43FA05F3C01851EBE37101F0004594
:1003880007D54FF0000EDCF1000C7EEB00006EEBA1
:100398000101B1F5801F1BD3B1F5001F0CD349082B
:1003A8005FEA30004FEA3C0C04F101044FEA445282
:1003B80012F5800F80F09A80BCF1004F08BF5FEA09
:1003C800500C50F1000041EB045141EA050130BDE9
:1003D8005FEA4C0C404141EB0101013C28BFB1F5FB
:1003E800801FE9D291F0000F04BF01460020B1FA46
:1003F80081F308BF2033A3F10B03B3F120020CDA19
:100408000C3208DD02F1140CC2F10C0201FA0CF0F6
:1004180021FA02F10CE002F11402D8BFC2F1200C5B
:1004280001FA02F120FA0CFCDCBF41EA0C01904011
:10043800E41AA2BF01EB0451294330BD6FEA04045A
:100448001F3C1CDA0C340EDC04F11404C4F1200245
:1004580020FA04F001FA02F340EA030021FA04F357
:1004680045EA030130BDC4F10C04C4F1200220FAAE
:1004780002F001FA04F340EA0300294630BD21FAEC
:1004880004F0294630BD94F0000F83F4801306BFB2
:1004980081F480110134013D4EE77FEA645C18BFA6
:1004A8007FEA655C29D094EA050F08BF90EA020F3D
:1004B80005D054EA000C04BF1946104630BD91EA35
:1004C800030F1EBF0021002030BD5FEA545C05D138
:1004D8004000494128BF41F0004130BD14F5800477
:1004E8003CBF01F5801130BD01F0004545F0FE41EB
:1004F80041F470014FF0000030BD7FEA645C1ABF20
:10050800194610467FEA655C1CBF0B46024650EA56
:10051800013406BF52EA033591EA030F41F4002182
:1005280030BD00BF90F0000F04BF0021704730B508
:100538004FF4806404F132044FF000054FF00001DD
:1005480050E700BF90F0000F04BF0021704730B59E
:100558004FF4806404F1320410F0004548BF404273
:100568004FF000013EE700BF42004FEAE2014FEAC8
:1005780031014FEA02701FBF12F07F4393F07F4FA3
:1005880081F06051704732F07F4208BF704793F0A6
:100598007F4F04BF41F40021704730B54FF46074B9
:1005A80001F0004521F000411CE700BF50EA0102BC
:1005B80008BF704730B54FF000050AE050EA010265
:1005C80008BF704730B511F0004502D5404261EBD5
:1005D80041014FF4806404F132045FEA915C3FF416
:1005E800D8AE4FF003025FEADC0C18BF03325FEAB3
:1005F800DC0C18BF033202EBDC02C2F1200300FA64
:1006080003FC20FA02F001FA03FE40EA0E0021FA88
:1006180002F11444BDE600BF70B54FF0FF0C4CF476
:10062800E06C1CEA11541DBF1CEA135594EA0C0F28
:1006380095EA0C0F00F0DEF82C4481EA030621EA63
:100648004C5123EA4C5350EA013518BF52EA03359E
:1006580041F4801143F4801338D0A0FB02CE4FF050
:100668000005E1FB02E506F00042E0FB03E54FF080
:100678000006E1FB03569CF0000F18BF4EF0010E78
:10068800A4F1FF04B6F5007F64F5407404D25FEA74
:100698004E0E6D4146EB060642EAC62141EA555127
:1006A8004FEAC52040EA5E504FEACE2EB4F1FD0C69
:1006B80088BFBCF5E06F1ED8BEF1004F08BF5FEAE7
:1006C800500E50F1000041EB045170BD06F0004699
:1006D80046EA010140EA020081EA0301B4EB5C0446
:1006E800C2BFD4EB0C0541EA045170BD41F480113E
:1006F8004FF0000E013C00F3AB8014F1360FDEBF63
:10070800002001F0004170BDC4F10004203C35DA3E
:100718000C341BDC04F11404C4F1200500FA05F3C1
:1007280020FA04F001FA05F240EA020001F0004262
:1007380021F0004110EBD37021FA04F642EB0601D8
:100748005EEA430E08BF20EAD37070BDC4F10C0402
:10075800C4F1200500FA04F320FA05F001FA04F2C6
:1007680040EA020001F0004110EBD37041F10001B2
:100778005EEA430E08BF20EAD37070BDC4F12005BD
:1007880000FA05F24EEA020E20FA04F301FA05F225
:1007980043EA020321FA04F001F0004121FA04F2CD
:1007A80020EA020000EBD3705EEA430E08BF20EA9D
:1007B800D37070BD94F0000F0FD101F000464000D7
:1007C80041EB010111F4801F08BF013CF7D041EA59
:1007D800060195F0000F18BF704703F0004652005D
:1007E80043EB030313F4801F08BF013DF7D043EA2E
:1007F8000603704794EA0C0F0CEA135518BF95EAE4
:100808000C0F0CD050EA410618BF52EA4306D1D16A
:1008180081EA030101F000414FF0000070BD50EA89
:10082800410606BF1046194652EA430619D094EA13
:100838000C0F02D150EA013613D195EA0C0F05D1FD
:1008480052EA03361CBF104619460AD181EA030151
:1008580001F0004141F0FE4141F470014FF0000009
:1008680070BD41F0FE4141F4780170BD70B54FF0A4
:10087800FF0C4CF4E06C1CEA11541DBF1CEA135524
:1008880094EA0C0F95EA0C0F00F0A7F8A4EB050406
:1008980081EA030E52EA03354FEA013100F08880FD
:1008A8004FEA03334FF0805545EA131343EA1263C6
:1008B8004FEA022245EA111545EA10654FEA00267B
:1008C8000EF000419D4208BF964244F1FD0404F534
:1008D800407402D25B084FEA3202B61A65EB030590
:1008E8005B084FEA32024FF480104FF4002CB6EB4D
:1008F800020E75EB030E22BFB61A754640EA0C00CD
:100908005B084FEA3202B6EB020E75EB030E22BF0C
:10091800B61A754640EA5C005B084FEA3202B6EB4D
:10092800020E75EB030E22BFB61A754640EA9C000C
:100938005B084FEA3202B6EB020E75EB030E22BFDC
:10094800B61A754640EADC0055EA060E18D04FEA9A
:10095800051545EA16754FEA06164FEAC30343EA3A
:1009680052734FEAC2025FEA1C1CC0D111F4801F07
:100978000BD141EA00014FF000004FF0004CB6E700
:1009880011F4801F04BF01430020B4F1FD0C88BF9F
:10099800BCF5E06F3FF6AFAEB5EB030C04BFB6EBAA
:1009A800020C5FEA500C50F1000041EB045170BD9D
:1009B8000EF0004E4EEA113114EB5C04C2BFD4EBCA
:1009C8000C0541EA045170BD41F480114FF0000E4E
:1009D800013C90E645EA060E8DE60CEA135594EACA
:1009E8000C0F08BF95EA0C0F3FF43BAF94EA0C0FCD
:1009F8000AD150EA01347FF434AF95EA0C0F7FF442
:100A080025AF104619462CE795EA0C0F06D152EA95
:100A180003353FF4FDAE1046194622E750EA410679
:100A280018BF52EA43067FF4C5AE50EA41047FF48A
:100A38000DAF52EA43057FF4EBAE12E74FF0FF3CEF
:100A480006E000BF4FF0010C02E000BF4FF0010CC0
:100A58004DF804CD4FEA410C7FEA6C5C4FEA430C39
:100A680018BF7FEA6C5C1BD001B050EA410C0CBF88
:100A780052EA430C91EA030F02BF90EA020F0020EA
:100A8800704710F1000F91EA030F58BF994208BF51
:100A980090422CBFD8176FEAE37040F0010070470E
:100AA8004FEA410C7FEA6C5C02D150EA013C07D165
:100AB8004FEA430C7FEA6C5CD6D152EA033CD3D0B0
:100AC8005DF8040B704700BF8446104662468C46AA
:100AD8001946634600E000BF01B5FFF7B7FF0028DD
:100AE80048BF10F1000F01BD4DF808EDFFF7F4FF06
:100AF8000CBF012000205DF808FB00BF4DF808ED91
:100B0800FFF7EAFF34BF012000205DF808FB00BFB3
:100B18004DF808EDFFF7E0FF94BF012000205DF8D5
:100B280008FB00BF4DF808EDFFF7CEFF94BF01208A
:100B380000205DF808FB00BF4DF808EDFFF7C4FF83
:100B480034BF012000205DF808FB00BF4FEA4102D6
:100B5800B2F1E04324BFB3F5001CDCF1FE5C0DD913
:100B680001F0004C4FEAC0024CEA5070B2F1004F5D
:100B780040EB830008BF20F00100704711F0804F60
:100B880021D113F13872BCBF01F00040704741F425
:100B980080114FEA5252C2F11802C2F1200C10FA29
:100BA8000CF320FA02F018BF40F001004FEAC1230D
:100BB8004FEAD32303FA0CFC40EA0C0023FA02F3B1
:100BC8004FEA4303CCE77FEA625307D150EA013387
:100BD8001EBF4FF0FE4040F44000704701F0004057
:100BE80040F0FE4040F40000704700BF10B5054CCF
:100BF800237833B9044B13B10448AFF300800123C1
:100C0800237010BD48020024000000001C320108B7
:100C180008B5034B1BB103490348AFF3008008BD77
:100C2800000000004C0200241C320108002070471C
:100C38007047F8B505460C468F180026BC4201D10E
:100C48003046F8BD2B68284614F8011B1B689847E6
:100C58000644F3E738B500F10805D0F8B430044687
:100C6800284698474FF6FD720346904213D8B4F8C9
:100C7800BA202846B4F8B81004F091FB94F89030E4
:100C8800032B08D8DFE803F002090F15B4F8B830D1
:100C98001844A4F8B800012038BDB4F8BA30184494
:100CA800A4F8BA00F7E7B4F8B8301B1AA4F8B830BB
:100CB800F1E7B4F8BA301B1AA4F8BA30EBE7000031
:100CC80013B500F50034D4ED187AF4EE407AF1EE5D
:100CD80010FA03D194F82430002B57D0F0EEC07AE4
:100CE8000C22B2EE086A84ED180AB5EEC00A9FED30
:100CF800280ABCEEE77AF1EE10FA8DED017A87EE5C
:100D0800867A9DF80430B3FBF2F102FB113348F206
:100D1800220252FA83F300EB8300CCBF01230023A5
:100D2800FCEEC77AD0ED006A84F82C30BFEE007A6A
:100D380004F13000CDED017A9DF80430013307EE5F
:100D4800903AF8EEE77AA6EEA77AD4ED0A7A67EE3B
:100D5800277A94ED087AB8EE477AC7EE876AF5EEF7
:100D6800C06AF1EE10FA58BFB0EE660A84ED070AC1
:100D780001F0CCFB94ED070A04F1400001F0C6FB3A
:100D880094F8243013B1002384F8243002B010BD45
:100D980000000000044B186880EA403080EA5040A8
:100DA80080EA401018607047000000242DE9F843DD
:100DB80000F5003400262E4B054604F188072DED7A
:100DC800028BB0EE408A84F82460F2EE088A84ED43
:100DD8000A0AE36107EE906A0136B0EE000AF8EEFF
:100DE800E70AC0EEA80A10F0DFFF0C2EA7EC010AF4
:100DF800F0D1002601274FF000094FF4803200217E
:100E080005F5803805F10C00266510F0DDFE9FED34
:100E1800190A04F13000C5E9019784ED0D8AE663EB
:100E280001F074FB4FF48032494608F118006665FA
:100E380010F0CAFE104B9FED0F0A04F14000C8E9FC
:100E4800049784ED118AE36401F060FB4FF480435A
:100E580094ED180A284684F82C70236284F82470CC
:100E6800FFF72EFF6666BDEC028BBDE8F88300BF76
:100E78000000A04000004842DB0F494037B5244B32
:100E88000221244D93ED000AD5ED007A224C30EE74
:100E9800270A224810F07CF92368012B26D1204824
:100EA80003F0F3FF1F4B1B7843BB1F4B0A22694615
:100EB80018681E4D10F0F2F96946194804F01EFB37
:100EC80095F9AE20C0F180016B46403205F108006B
:100ED80001EBD17102EBD272C1F34F01C2F34F02A1
:100EE80004F0C0FA05F1080003F0D9FF23680133C4
:100EF800212BA8BF0123236003B030BDD5ED007AB4
:100F08000A226946FDEEE77A17EE900AD1E700BF9C
:100F180060030024340300243C03002460170424E5
:100F280080020024380300244003002478020024AF
:100F3800F8B50546C0200C4617461E462DED028B17
:100F480010F0AEFA07EE100ADFED698AB7EE008AF4
:100F5800B8EE477AC120C7EE287A78EE677AC5EDF1
:100F6800007A10F09DFA07EE100AC620B8EE477A0C
:100F7800C7EE287A78EE677AC4ED007A10F090FA16
:100F880007EE100AC320B8EE477AC7EE287A78EE43
:100F9800677AC7ED007A10F083FA07EE100AB8EE08
:100FA800477AC7EE287A78EE677AC6ED007A206825
:100FB800FFF7DAFA48A3D3E90023FFF7BDFD08B12C
:100FC8004C4B23604C4C4D48D4ED007AB8EEE70A00
:100FD800FFF776FED4ED007A4948B8EEE70AFFF746
:100FE8006FFE484B1868FFF7BFFA3DA3D3E900230B
:100FF800FFF712FB02460B4606460F463AA1D1E917
:101008000001FFF751F9FFF7A1FDD5ED007A08EED1
:10101800900A68EEA77A17EE900AFFF7A5FA32460B
:101028003B46FFF743F9FFF791FD374B1860D5EDC5
:10103800007A68EEA77A17EE900AFFF795FA32461B
:101048003B46FFF733F9FFF781FD304B304A186014
:101058001278304BD3F8843252B922681A4422608D
:1010680023680C2B31DD0C232360BDEC028BF8BD0B
:10107800FA225343284A07EE903A284BF8EEE77ACB
:1010880093ED007A77EE877A9FED257AF4EEC77AAA
:10109800F1EE10FAD4BFB0EE677AF0EE477A83ED3E
:1010A800007A92ED007A77EE276AF4EEC86AF1EEDC
:1010B80010FAD5D538EE478A9FED1A7A38EE678A46
:1010C800E8EE077AC3ED007ACAE70C33CDDA6FF0A1
:1010D8000B03C9E7AFF300807B14AE47E17AEC3F1E
:1010E8009A9999999999A93F000000000094F140B4
:1010F80000C07F440AD7633F40030024340402241D
:101108007C030024680300245803002454030024AB
:1011180038030024EC04042460030024340300246E
:101128000050C3473480373A38B5194A0023194D5F
:101138001360194C194A2146194813602B60194A43
:10114800194BFFF7F5FE24682046FFF70DFA0EA3AA
:10115800D3E90023FFF7F0FCDFED147A002818BF6D
:1011680017EE904A2C60124C204600F097FE94F837
:101178007C327F2B01BF0F4A137883F00103137071
:1011880038BD00BFAFF300807B14AE47E17AEC3F77
:10119800580300245C03002474030024540300242F
:1011A80078030024700300246C0300240AD7633FEB
:1011B800EC04042438030024FDEEC07A43F6FF73E0
:1011C800B8EEE77A17EE902A9A4294BF826083605D
:1011D80030EE470A80ED000A7047D0E9013290ED01
:1011E800007A1344C3F30D020133C3F30D0300EB7C
:1011F800820200EB830392ED030AD3ED037A77EEC4
:10120800C07AA7EE870A7047F8B500F5003405469E
:101218000E4604F130002DED0A8B01F087F904F138
:101228004000B0EE409A01F081F9D4ED1C7AF0EE5E
:10123800408AF4EEC97AF1EE10FA30DDFF27D4EDDA
:10124800199AFFF7A7FD9FED728AB0FBF7F3C3EB7E
:101258000323C01A07EE900AF8EEE77A87EE887A39
:1012680067EE297A94ED087ABBEEEF7A67EE877A13
:10127800C4ED1A7AFFF78EFD9FED667AB0FBF7F79B
:10128800C7EB0727C01B07EE900AF8EEE77AC7EE10
:10129800886ADFED617AE6EE877AC4ED207AD4EDCC
:1012A8001D7AF4EEE87AF1EE10FA30DDFF27D4ED7E
:1012B800199AFFF76FFD9FED568AB0FBF7F3C3EB62
:1012C8000323C01A07EE900AF8EEE77A87EE887AC9
:1012D80067EE297A94ED087ABBEEEF7A67EE877AA3
:1012E800C4ED1B7AFFF756FD9FED4A7AB0FBF7F77E
:1012F800C7EB0727C01B07EE900AF8EEE77AC7EEA0
:10130800886ADFED457AE6EE877AC4ED217A94EDB6
:101318001EAAD4ED1ABAD4ED1F9A7BEECA7A94EDC0
:10132800207A94ED1BBA94F82C30A7EE27AA94EDF6
:10133800217A7BEE697A84ED1C9AC4ED1D8AE7EE6A
:10134800279A84ED1EAAC4ED1F9A2BB1F7EE007AF6
:1013580037EEC99A77EEE88A236A9FED30CA013BD7
:1013680029EE0C0A08EE103AB8EE488A68EE09AA87
:1013780028EE288AC4ED16AA84ED178A10F084FD99
:10138800B0EE409A84ED140A28EE8C0A10F07CFD29
:1013980043F6FF716B68F0EE408A84ED150A3BEE68
:1013A800AA0A306805EB83020B44D06005F5803249
:1013B800C3F30D0302F10C046B60136902EB83069F
:1013C8000B44C3F30D03B06128461361FFF7F4FE25
:1013D8003BEE080A2046FFF7EFFE3AEE2A0A2846B7
:1013E800FFF7EAFE39EE880A20469FED0D8AFFF7DF
:1013F800E3FE2846FFF7F1FEA9EE008A2046FFF734
:10140800ECFEA8EE808AB0EE480ABDEC0A8BF8BD67
:1014180000007F436F12833A17B75139DB0F4940F9
:1014280000000000FDEEC07A064BB8EEE77A17EE32
:10143800902A9A4294BF8260836030EE470A80ED1A
:10144800000A70473F19010070B52DED028BADF50C
:10145800AA6D03230422544902A8544E00F0C0FA8E
:101468004FF4A96202A9524810F0F2FB20214E481D
:10147800012500F08EFA4C4800F07BFA4D4886EDC5
:10148800000AFFF793FC96ED000A4FF480544A488F
:10149800FFF78CFCB2EE080A4648FFF711FC454BF3
:1014A80003F5003393ED180AA3F500301C6283F8A6
:1014B8002450FFF705FC404B03F5003393ED180A61
:1014C800A3F500301C62002483F82450FFF7F8FBD2
:1014D800B2EE080A3848FFF7F3FB384A00213848CB
:1014E80010F072FB364B2146344A0C3B35480093CA
:1014F800C3E9014510F068FB324B334A0C3B3349D2
:1015080033480193C3E901451E231360314A136030
:101518004FF0FF33304A1360304A1360304B1C6081
:1015280003F0DCFF21462A4803F0EEFF294628484D
:1015380003F032FF264804F05DFB254803F0F1FC78
:101548002146234804F05FFBDFED267A96ED008AFA
:10155800254B28EE278A00981D60244BB0EE480AD8
:1015680083ED008A224B83ED008A224B83ED008AAB
:10157800214B83ED008AFFF755FFB0EE480A01982A
:10158800FFF750FF4FF416511C480EF015F81C4990
:10159800054800F0EBF91B4B1C601B4B1C700DF54C
:1015A800AA6DBDEC028B70BD180B042468030024DF
:1015B800EC040424340402247C03002400650400A1
:1015C800186504C00C0000C07002002434380108FB
:1015D8008002002474020024680200246C020024A3
:1015E800640200249A99993E3C0300245403002481
:1015F80058030024600300246403002460170424B3
:10160800991700084003002438030024D0E9013268
:101618000C49134490ED007AB3FBF1F201FB12324E
:10162800013300EB820292ED030AB3FBF1F201FBF6
:10163800123300EB8303D3ED037A77EEC07AA7EE7B
:10164800870A704740190100F8B5454B0546454AD9
:101658000C461F78444BD2ED007A9FED447A2DED6D
:10166800048B93ED008AF0EE408AB0EE609A77EE34
:10167800C87AA7EE878A002F63D03D49B0EE480AA2
:101688003C4AD1ED007A3C49D2ED009AD1ED006A8E
:101698003A4877EEA67A83ED008A77EEE97AE7EEA4
:1016A800879AC2ED009AFFF7BDFEB0EE690A34488A
:1016B800324EFFF7B7FE3046FFF7A8FF304885EDFA
:1016C800000AFFF7A3FF72682E4802F58C332E49F3
:1016D80084ED000A03F23F13D1ED007AB3FBF0FC6E
:1016E80000FB1C33C7B395ED007AE7EE278A06EBBB
:1016F80082027360C2ED038A94ED007A204AA7EE55
:10170800279A536802EB830003F58C3303F23F13E7
:1017180080ED039A1B4895ED007AB3FBF0F667EE6F
:10172800277A00FB16335360C5ED007AD4ED007AB2
:1017380091ED007A67EE877ABDEC048BC4ED007AF0
:10174800F8BDB0EE480A0E4883ED008AFFF76AFE3E
:10175800B0EE480A0948ABE70C4890ED007AC4E7B8
:10176800380300245803002464030024F7CC92387B
:101778005403002460030024340300240C6504C0CF
:10178800000000C0401901005C030024500300243D
:101798002DE9F0470024DFF8C490DFF8DC80054627
:1017A8000E4617462DED048B82B0FFF7BDFCBC42F8
:1017B80004D102B0BDEC048BBDE8F0872B684FEA7A
:1017C800840A264903EB84032548D3ED008A6B6815
:1017D80003EB840393ED008AC9ED008AFFF714FD3B
:1017E800F0EE480A01A9684688ED000AB0EE680ADA
:1017F800FFF72AFF1B499DED009A1B4881ED009ACF
:10180800FFF702FD194BDFF874C01949DCED007AC7
:101818001848726868EEA78A83ED000A097852446E
:10182800336890ED007A5344DDED017A79B1E9EE41
:10183800078AC3ED008A01349CED007A28EE078AF6
:1018480090ED007AA7EE278A82ED008AAFE7D8EDFF
:10185800006A30EE260AE0EE078AEAE7440300242D
:101868007C0300244C030024340402245003002485
:10187800380300246C030024480300247003002468
:1018880037B50623264A0C25137082F84130254ABD
:10189800137082F84130244A137082F84130234A89
:1018A800137082F84130224A224B013D136102F144
:1018B8002002FAD120484FF400722049C0F80032C3
:1018C800C0F82032C0F84032C0F86032C0F8C432E4
:1018D800C82300F2F6201A4C40F80A3C10F0B8F978
:1018E800184B04F1080065602360174BC4E92D35D7
:1018F80003F093FF2046154B154A40F8083B15495D
:10190800154B03F023FB082109231E226018CDE99B
:10191800003207230A2203F081FA03B030BD00BF6A
:1019280086010030040100308200003000000030E1
:101938005C0504240820803AEC04042434320108AD
:10194800780200244C360108135800086436010850
:10195800214E0008E0620108194D00084FF4E063C9
:101968000A3003800523837002F002BA043001F0C4
:101978005ABB043001F053BB08B5043001F03EFBFC
:10198800D0ED007AF8EE677AFCEEE77A17EE900A67
:1019980008BD38B5051D04462DED028B284601F01B
:1019A80030FB284601F03BFB2046B0EE408AFFF7AB
:1019B800E3FF07EE900AF8EE677A88EE277ABDEC27
:1019C800028B84ED007A38BD0221202008B50FF083
:1019D8007DFD20200FF01AFEB0FA80F0400908BD06
:1019E8002DE9F043052B0D4690461E46044628BFB8
:1019F80003264FF0010900272DED028B9FB004F05C
:101A08006FF9A5F8088001F0AFFC02F045FB5E4BCA
:101A180028460E960B9303F10073CDF8449003F516
:101A280040730A970C934FF44173CDE90F97ADF8C3
:101A38003430FFF7C9FF484540F092800823ADF8DD
:101A480008000390514A0DEB03018DF80A700493C6
:101A5800CDE9120705A801F0CBFBB5F908300AA9B2
:101A680002A8052B02BF00230122CDE9122300237F
:101A7800CDE9023302F05AF9B5F90830052B03D144
:101A8800424905A801F032FBB5F90830042B15D1FD
:101A98000123002214A903A81D9314931896ADF8E6
:101AA8005C20CDE919333A4B159303F1012303F573
:101AB8007D03CDE91B22169302F038F93023CDE9D6
:101AC8000536B5F908302E1D042B53D140F60163B5
:101AD800ADF80430019801F0B5FA4FF07C5305A930
:101AE80030460793DDE9022301F06AFA2846FFF73A
:101AF80035FF04F1700204F5F871264B13612032AA
:101B08009142FBD1C4F800324FF40072C4F820327D
:101B180004F2F620C4F84032C4F86032C4F8C43283
:101B2800C8231D49C4F8EC3210F092F8304601F091
:101B380076FA2846B0EE408AFFF71EFF07EE900AB5
:101B480041462046F8EE677A88EE270A85ED000AB6
:101B580000F0A4FC20461FB0BDEC028BBDE8F0836A
:101B680040F60133ADF800300098CDE9127901F064
:101B780069FA72E74FF07E53029A05A93046079337
:101B880001F010FAB2E700BF04020404340A042486
:101B9800000106090820803A3434010806230C4A5B
:101BA8000C210C48137082F841300B4A137082F8EC
:101BB80041300A4A137082F84130094A137082F89A
:101BC80041300022074B5A600B2202F0C7BA00BF0F
:101BD8008E030030340A04240C0300308A020030DB
:101BE80008020030180B0424014802F031BB00BF82
:101BF800340A042470B52DED028BB0EE408A0446F9
:101C080084B0022502231B220121012602F00AFAD0
:101C1800B0EE480A04F1100002231C22012102F050
:101C280001FAB0EE480A04F51C700D2319221A2196
:101C38000095DFED1B8ACDE9015501F0E1FB04F5C4
:101C48002270122313221421009601F003FD04F2DE
:101C58008D20172318221121009601F0FBFC002388
:101C6800F0EE680A04F17000B0EE480A1A46C62180
:101C780001F026FB0023F0EE680AC021B0EE480A06
:101C88001A4604F1900001F01BFBC4F80855C4F88B
:101C98000055C4F8FC5404B0BDEC028B70BD00BF05
:101CA8006F12033B30B50225044600230B220C219A
:101CB80000F51C702DED028B85B0B0EE408ADFED8B
:101CC8002E8A0095CDE9015501F09AFB04F525709F
:101CD800B7EE000A00231422012102F0A3F904F54B
:101CE8002970B7EE000A00231322012102F09AF9A5
:101CF8000423F0EE680A04F17000B0EE480AC4F854
:101D0800F834C4F8083501220023C021C4F804556A
:101D180001F0D6FAF0EE680AB0EE480A04F1900035
:101D280000230122C12101F0CBFAF0EE680AB0EEDF
:101D3800480A04F1B00000230122C62101F0C0FACC
:101D4800F0EE680AB0EE480A0023012204F1D00040
:101D5800C32101F0B5FA012117200FF0B7FB0121CB
:101D680017200FF0B3FB0121112005B0BDEC028B49
:101D7800BDE830400FF0AABB6F12033B70B5C0E955
:101D88000023049B04460626C3600B7803724B7835
:101D98004372FF2380F820300023191120689A002D
:101DA80001EB811192B2465403F00F00256801330C
:101DB80001EB8000202B0544A5F80120A5F803209D
:101DC80065686E5461680144A1F80120A1F80320F8
:101DD800E3D104F11005217A094A41F0400128466F
:101DE80001F054FC284601F09AFC617A284641F03B
:101DF800400101F050FC2846BDE8704001F081BC6C
:101E0800CC1004242DE9F84304460021C069204F72
:101E18000FF0C6FB0121206A0FF0C2FB3B681D4A88
:101E28001D49B3FBF2F248684B681B1A9A42FBDC67
:101E380004F11C0604F10C09174D0021DFF8548049
:101E4800206A0FF0ADFB0021E0690FF0A9FB3B68A9
:101E58006968B3FBF8F26B685B1A9A42FBDC606A4C
:101E68000FF0D4FB00384FF0010118BF012006F82D
:101E7800010DE0690FF094FB3B686968B3FBF8F269
:101E88006B685B1A9A42FBDC4E45DCD1BDE8F883EF
:101E98006800002440420F00001000E0B0F90C3543
:101EA800042B70B5044603D05A1E92B2012A05D8F5
:101EB80004F51C7001F0CDFA002525E0032BFBD1B9
:101EC80000F5A260FFF79EFF04F21B500022072ACC
:101ED8006FEA020302F1010294BF0021012103F01D
:101EE8000703102A03EBC10310F8011F234493F8DA
:101EF800385541EA450183F83815E8D1DCE704EBA9
:101F08000510013502F0A2F8D4F8FC34AB42F6DC37
:101F180004F525760025D4F80435AB4200DC70BD05
:101F280030460135103602F091F8F4E7DFED1C7AFF
:101F380020EE270A13B5B5EEC00AF1EE10FA2CD43C
:101F4800B4EEE70AF1EE10FAD8BFF0EE407AFCEEF4
:101F5800E77A0268CDED017A9DF8043000EB43037F
:101F68005C8CC1F3071301F00F0103EB831303EB40
:101F780081031A44B2F80130C3F30B03E118C1F32B
:101F88000B01A2F8031040F6FE718C4288BF43F49F
:101F98008053A2F8013002B010BDDFED027AD6E717
:101FA80000007F4300000000072930B504460D46B5
:101FB8002DED028BF0EE608A87B0B0EE418A29D809
:101FC800B0F90C35022B25D1144A6B4604F535744B
:101FD8009068D168124A03C310685168114A03C354
:101FE8001068516803C305F1180320460DEB03057B
:101FF80015F8181CFFF79AFFB0EE680A15F8101CC0
:102008002046FFF793FFB0EE480A15F8081C204653
:10201800FFF78CFF07B0BDEC028B30BD34360108EA
:10202800043701080D370108032907B50FD8B0F99F
:102038000C35022B0BD1074B00F53570019301F1DC
:1020480008030DEB030111F8041CFFF76FFF03B041
:102058005DF804FB0F191A1B072A08B50B46114631
:1020680008D8B0F90C25032A04D123B900F5357036
:10207800FFF75CFF08BD012BFCD1C1F10F01F5E7AB
:10208800072908B508D8B0F90C35032B04D110314D
:1020980000F53570FFF74AFF08BD0000B0F90C35B0
:1020A800022B70B504462DED028B1ED100259FED45
:1020B8001E8ADFED1D0AE9B20135B0EE481AB0EE0E
:1020C800600A2046FFF770FF082DF2D100259FED2A
:1020D800168AE9B20135B0EE480A2046FFF7A4FF98
:1020E800042DF6D1BDEC028B70BD032BFAD100256F
:1020F8009FED0D8AEEB2B0EE480A00212046324626
:102108000135FFF7A9FFB0EE480A32460121204603
:10211800FFF7A2FFB0EE480A31462046FFF7B0FFAE
:10212800082DE7D1DEE700BF00000000F8B5D0E9D0
:10213800001204460023C0E9002101EB8300B0F837
:10214800035002EB83000133A0F80350102BF4D1A5
:10215800002301EB8300B0F8445002EB8300013305
:10216800A0F84450102BF4D1FF2304F1100784F891
:10217800203094F92050012D08DC01356DB2022D74
:1021880084F8205003D1FF2384F82030F8BD631968
:10219800002605EB85153846197A41F0400101F013
:1021A8007AFA05EB86036268F1B201361A443846BA
:1021B800B2F80330B2F8012001F0E6FA102EF0D19F
:1021C800D7E708B5B0F80C35023B9BB2012B03D812
:1021D80000F53570FFF7AAFF08BD00000C23624A1E
:1021E80070B52DED028B86B0C0F8003506230225A8
:1021F80007260446C0F808354FF48073B0EE408ACD
:1022080005A9ADF814304FF0FF33C0F8FC6400F5B1
:102218003570C0F824520093544BFFF7AFFD2046A9
:10222800FFF73CFF2046FFF7CCFFB0EE480A04F565
:102238001C700E231B221C210095DFED4D8ACDE971
:10224800015501F0DDF80023F0EE680A04F1700092
:10225800B0EE480A1A46C12101F032F80023F0EE28
:10226800680A04F19000B0EE480A1A46C42101F049
:1022780027F80023F0EE680A04F1B000B0EE480A2F
:102288001A46C22101F01CF80023F0EE680A04F196
:10229800D000B0EE480A1A46C52101F011F8002313
:1022A800F0EE680A04F1F000B0EE480A1A46C321BD
:1022B80001F006F80023F0EE680A04F58870B0EE25
:1022C800480A1A46C62100F0FBFF0023F0EE680A10
:1022D80004F52D70B0EE480A1A46C02100F0F0FF50
:1022E800B0EE480A2B4620460822012101F09AFE4A
:1022F800B0EE480A2B4604F110000922012101F032
:1023080091FEB0EE480A2B4604F120000A22012172
:1023180001F088FEB0EE480A2B4604F130000D2289
:10232800012101F07FFEB0EE480A2B4604F140007F
:102338001922012101F076FEB0EE480A2B4604F17D
:1023480050001A22012101F06DFEB0EE480A2B461A
:102358003246012104F1600006B0BDEC028BBDE8F5
:10236800704001F05FBE00BF9204003010040030DE
:102378006F12033B70B5022504461E2200212B462E
:102388001B262DED028BB0EE408A84B0C0F8FC54B9
:10239800C0F8F85401F046FEB0EE480A2B4604F1A6
:1023A80010001D22002101F03DFE4FF40073384A51
:1023B80003A9ADF80C304FF0FF3304F535701A253A
:1023C8000093344BFFF7DAFC2046FFF767FE204600
:1023D800FFF7F7FE012115200FF078F801211420EE
:1023E8000FF074F8012113200FF070F80023DFEDCF
:1023F8002A0AB0EE480A1A4604F17000C12100F01A
:102408005FFF1C200121C4F81465C4F81005C4F846
:102418002C05C4F818550FF059F830460121C4F8B6
:1024280030650FF053F828460021C4F834550FF0F2
:102438004DF81022002104F21C500FF0C5FBB0EE3D
:10244800480A04F5F870C22100F062FFB0EE480AAD
:1024580004F50470C32100F05BFFB0EE480A04F5F0
:102468000C70CA2100F054FFB0EE480A04F514704D
:10247800C92100F04DFF012117200FF027F8012195
:10248800162004B0BDEC028BBDE870400FF01EB8FA
:1024980096050030140500306F12033B0223A0F8A4
:1024A8000C150139C0F8F8340023C0F80835C0F815
:1024B8000435C0F8FC34C0F8003503290BD8DFE830
:1024C80001F002040608FFF795BBFFF787BEFFF788
:1024D80051BFFFF7E7BB70470623084A137082F81D
:1024E8004130074A137082F84130064A137082F867
:1024F8004130054A137082F8413070479605003024
:10250800140500309204003010040030DFED067A24
:1025180080ED000A20EE270A90ED017AC0EE077AD6
:10252800C0ED027A704700BFDB0FC940D0ED037AD7
:102538009FED0D7AD0ED026A87EE870A77EEA67ACC
:10254800F4EEC77AF1EE10FAC8BF77EEC77A9FEDBE
:10255800077AF5EEC07AF1EE10FA48BFF0EE477A46
:10256800C0ED037A704700BFDB0FC94000000000D0
:10257800D0E9052322B1002B0CBF022004207047AC
:10258800181E18BF01204000704700002DE9F04FC9
:10259800C04E89B080468A46A6F11409304600AF7D
:1025A800154601F0D3FB04464846FFF7E1FF834692
:1025B80030B3D9F8043064699E46002B00F0788166
:1025C800AB00EB46012C03F1070323F00703ADEB47
:1025D800030D6846ADEB030D6E463BD0022C13D0BD
:1025E800002C65D02A46314673469847012C00F0E6
:1025F800C280022C00F08280002C00F0F780DD46BB
:102608002437BD46BDE8F08F99ED0B7A02460023CA
:10261800DFEDA16A08F1040CAB4202F10802E1D235
:1026280058F8231007EE901A5CF823100233F8EEDE
:10263800E77A67EEA67A67EE877A42ED027A07EEC6
:10264800901AF8EEE77A67EEA67A67EE877A42ED97
:10265800017AE1E799ED0B7A01460022DFED8F6AF6
:1026680008F1040CAA4201F10801BBD258F8223043
:1026780083F40003A3F5000307EE903A5CF82230D8
:102688000232F8EEE77A83F40003A3F5000367EE5D
:10269800A67A67EE877A41ED027A07EE903AF8EE6D
:1026A800E77A67EEA67A67EE877A41ED017AD9E78D
:1026B80099ED0B7A02462346DFED796A08F10401A9
:1026C800AB4202F108028DD238F923C007EE90CA56
:1026D80031F923C00233F8EEE77A67EEA67A67EE9F
:1026E800877A42ED027A07EE90CAF8EEE77A67EE4B
:1026F800A67A67EE877A42ED017AE1E799ED046AF6
:1027080000239FED687A0AF10402DFED676AAB42A5
:10271800BFF475AFD6ED007A66EE277AF4EEC77A85
:10272800F1EE10FA40F2B080F4EEE67AF1EE10FA2B
:10273800A8BFF0EE667AFEEEE07A17EE901AD6EDB4
:10274800017A66EE277A4AF82310F4EEC77AF1EE9A
:1027580010FA40F29C80F4EEE67AF1EE10FAA8BF87
:10276800F0EE667AFEEEE07A083617EE901A42F836
:1027780023100233CBE799ED046A00239FED497AD1
:102788000AF10402DFED486AAB42BFF438AFD6ED78
:10279800007A66EE277AF4EEC77AF1EE10FA6DD970
:1027A800F4EEE67AF1EE10FAA8BFF0EE667AFEEEE5
:1027B800E47A17EE901AD6ED017A66EE277A4AF88F
:1027C8002310F4EEC77AF1EE10FA5AD9F4EEE67A4D
:1027D800F1EE10FAA8BFF0EE667AFEEEE47A08365B
:1027E80017EE901A42F823100233CDE799ED046AE8
:1027F8000AF104029FED2B7ADFED2B6ADFED2B5AED
:10280800AC42BFF4FCAED6ED007A66EE277AF4EE61
:10281800C77AF1EE10FA2BD9F4EEE67AF1EE10FA57
:10282800A8BFF0EE667A67EEA57AFDEEE77A17EEB6
:10283800903AD6ED017A66EE277A1BB24AF8243030
:10284800F4EEC77AF1EE10FA15D9F4EEE67AF1EE65
:1028580010FAA8BFF0EE667A67EEA57A0836FDEEA4
:10286800E77A17EE903A1BB242F824300234C7E7F1
:10287800F0EE477AD7E7F0EE477AEDE7F0EE477AE1
:1028880095E7F0EE477AA8E7F0EE477A53E7F0EEDF
:10289800477A67E73C0B042400000030000000344E
:1028A8000000003804FF7FBF04FF7F3F00FEFF46A3
:1028B80056F8143C3B61002B3FF4A2AE301DC7F81C
:1028C8000CD001F051FABBF1020F4FEA8B01F8610D
:1028D80014BF6A002A460731BBF1020F4FEA820390
:1028E80021F0070103F1070323F00703ADEB030D04
:1028F800B2FBFBF2C7F814D0ADEB030D7B69EC46D5
:10290800ADEB010D03EB82036846ADEB010D796970
:10291800BB616E4643600CEB820301604FEA8201A3
:10292800CDF800C0019308D0BA690B440A44029359
:102938000B4482600A440393C260012C6BD0022CC2
:1029480012D0002C00F0D0806A0831463B699847C5
:10295800012C00F0AB81022C00F02181002C00F04A
:102968002082D7F80CD04BE6DFF834E30021FA696F
:10297800DEF820309FEDC77A03EB820C08F10403E0
:102988007B60A942E0D24B087A69DEED0B6ABBF1A5
:10299800020F02EB83024FEA8309BA6058F821203C
:1029A80007EE902ABA68F8EEE77A67EE877A67EE5C
:1029B800A67AC2ED007ABA6902EB83037A6852F804
:1029C800212007EE902ABA60F8EEE77A67EE877A58
:1029D80067EEA67AC3ED007A19D0DCED007A82683A
:1029E800F8EEE77AC3684A444B4467EE877A67EEA5
:1029F800A67AC2ED007ADCED017ADEED0B6AF8EE1C
:102A0800E77A67EE877A67EEA67AC3ED007A023135
:102A18000CF1080CB5E7DFF888C20022FB69DCF886
:102A280020109FED9D7A01EB830108F104037B6080
:102A3800AA4289D24FEA52097B69DCED0B6ABBF1E5
:102A4800020F03EB89034FEA890EBB6058F8223066
:102A580083F40003A3F5000307EE903ABB68F8EE91
:102A6800E77A67EE877A67EEA67AC3ED007ABB69E4
:102A780003EB89097B6853F8223083F40003A3F53C
:102A8800000307EE903AF8EEE77A67EE877A67EE8A
:102A9800A67AC9ED007A24D0836803EB0E090B6887
:102AA80083F40003A3F5000307EE903AC368F8EE39
:102AB800E77A9E444B6867EE877A83F40003A3F5B0
:102AC800000367EEA67AC9ED007A07EE903ADCEDCE
:102AD8000B6AF8EEE77A67EE877A67EEA67ACEEDAC
:102AE800007A02320831A3E7DFF8B4E12146FA6937
:102AF800DEF820309FED697A03EB820C08F10403BD
:102B08007B60A942BFF420AF4B087A69DEED0B6AFF
:102B1800BBF1020F02EB83024FEA8309BA6038F96E
:102B2800212007EE902ABA68F8EEE77A67EE877AEE
:102B380067EEA67AC2ED007ABA6902EB83037A6877
:102B480032F9212007EE902AF8EEE77A67EE877AC5
:102B580067EEA67AC3ED007A1DD0BCF90030826812
:102B680007EE903AC3684A44F8EEE77A4B4467EEBA
:102B7800877A67EEA67AC2ED007ABCF90420DEED0A
:102B88000B6A07EE902AF8EEE77A67EE877A67EE27
:102B9800A67AC3ED007A02310CF1080CB1E7404B7C
:102BA8000AF104049FED3F7A986A93ED046AFB6981
:102BB800DFED3D6A00EB83000023AB42BFF4D1AEEA
:102BC8005A08316801EB82014FEA820CD1ED007A94
:102BD80066EE277AF4EEC77AF1EE10FA40F27F81BA
:102BE800F4EEE67AF1EE10FAA8BFF0EE667A7168B4
:102BF800FEEEE07A614417EE902AD1ED007A4AF8A9
:102C0800232066EE277AF4EEC77AF1EE10FA40F246
:102C18006981F4EEE67AF1EE10FAA8BFF0EE667A72
:102C2800FEEEE07ABBF1020F17EE902A44F823205B
:102C38002DD0B1686144D1ED007A66EE277AF4EEC2
:102C4800C77AF1EE10FA40F25081F4EEE67AF1EE2E
:102C580010FAA8BFF0EE667AF268FEEEE07A6244F7
:102C6800C0ED007AD2ED007A66EE277AF4EEC77AE4
:102C7800F1EE10FA40F23C81F4EEE67AF1EE10FA49
:102C8800A8BFF0EE667AFEEEE07AC0ED017A023374
:102C9800083092E7000000300000003400000038DF
:102CA800280B042404FF7FBF04FF7F3F924B0AF1E7
:102CB80004049FED927A986A93ED046AFB69DFED4C
:102CC800906A00EB83000023AB42BFF44AAE5A0877
:102CD800316801EB82014FEA820CD1ED007A66EE91
:102CE800277AF4EEC77AF1EE10FA40F2EC80F4EEAF
:102CF800E67AF1EE10FAA8BFF0EE667A7168FEEE99
:102D0800E47A614417EE902AD1ED007A4AF823203C
:102D180066EE277AF4EEC77AF1EE10FA40F2D68022
:102D2800F4EEE67AF1EE10FAA8BFF0EE667AFEEE5F
:102D3800E47ABBF1020F17EE902A44F823202DD035
:102D4800B1686144D1ED007A66EE277AF4EEC77A6D
:102D5800F1EE10FA40F2BD80F4EEE67AF1EE10FAE8
:102D6800A8BFF0EE667AF268FEEEE47A6244C0ED3F
:102D7800007AD2ED007A66EE277AF4EEC77AF1EEA1
:102D880010FA40F2A980F4EEE67AF1EE10FAA8BF44
:102D9800F0EE667AFEEEE47AC0ED017A023308308E
:102DA80092E7554B0AF104009FED547A996A93ED26
:102DB800046AFB69DFED526A01EB8301DFED515ACA
:102DC800AC42BFF4CEAD6308326802EB83024FEA2F
:102DD800830CD2ED007A66EE277AF4EEC77AF1EE2C
:102DE80010FA64D9F4EEE67AF1EE10FAA8BFF0EE24
:102DF800667A67EEA57A72686244FDEEE77A17EEA6
:102E0800903AD2ED007A66EE277A1BB24AF824305F
:102E1800F4EEC77AF1EE10FA4CD9F4EEE67AF1EE58
:102E280010FAA8BFF0EE667A67EEA57ABBF1020F3A
:102E3800FDEEE77A17EE903A1BB240F8243033D013
:102E4800B2686244D2ED007A66EE277AF4EEC77A69
:102E5800F1EE10FA31D9F4EEE67AF1EE10FAA8BFE5
:102E6800F0EE667A67EEA57AFDEEE77A17EE903A0D
:102E78001BB20B60F3686344D3ED007A66EE277AE1
:102E8800F4EEC77AF1EE10FA1AD9F4EEE67AF1EE1A
:102E980010FAA8BFF0EE667A67EEA57AFDEEE77A3B
:102EA80017EE903A1BB24B600234083188E7F0EE17
:102EB800477A9EE7F0EE477AB6E7F0EE477AD1E731
:102EC800F0EE477AE8E7F0EE477A17E7F0EE477A50
:102ED8002DE7F0EE477A46E7F0EE477A5AE7F0EE4C
:102EE800477A84E6F0EE477A9AE6F0EE477AB3E658
:102EF800F0EE477AC7E600BF280B042404FF7FBF23
:102F080004FF7F3F00FEFF467FB5044601A8089EE8
:102F180004F1080580E80E0007C885E80B00D4ED29
:102F2800047AF5EEC07AF1EE10FA02DC012004B062
:102F380070BDF7EE006A86EEA77A84ED0B7A002E54
:102F4800F4D0204640F8146F00F000FF0369002019
:102F5800E360024BE361024B6362E8E71826003046
:102F680018060030836937B504460D4643B18368B7
:102F78000022183000929B000269816800F0E8FE88
:102F8800A36804F11400064A9B000092626AE16992
:102F980000F0DEFE00202560606003B030BD00BF99
:102FA8009525000807B503460448186000920EC925
:102FB800FFF7AAFF03B05DF804FB00BF280B042449
:102FC800F0B50B4D87B017461E46056003AC07C920
:102FD80084E807000097284694E80E00FFF794FF5E
:102FE800044B0020AE612B62034BAB6207B0F0BD0F
:102FF800280B0424183600301816003000680830F2
:103008007047B1F5806F03680A4628BF4FF48062A5
:10301800B1F5806F9A6094BF002001207047006866
:10302800143000F09EBE08B50068FFF79BFF002033
:1030380008BD0000024B0022C3E90522704700BF0B
:10304800280B04241FB50124ADF80C0003A8ADF823
:103058000E4000F02DFA214603A800F0D9FA2046C8
:1030680001F046F8002103A800F0D2FA204601F04A
:103078003FF8214603A800F0CBFA04B010BD70B5A4
:103088000E460179044600684908154601F016F90C
:103098002068314603681B6898470021206801F0C2
:1030A800B8F9012221792068D14001F028FA206876
:1030B80003685B6998472870002070BD70B50E469C
:1030C8000179044600684908154601F0F7F82068B8
:1030D800314603681B6898472068294603681B68BF
:1030E8009847206801F010FA002070BD37B50446F3
:1030F800084621602E4901F0BFF820681B221A23D8
:103108000021C0E9212301F0C3FA8C230DF1050247
:10311800402123712046FFF7B2FF9DF8052040218A
:10312800204602F07F02FFF7C9FF042000F0E0FF0D
:103138000DF1050240212046FFF7A1FF9DF805206B
:103148004021204602F0BF02FFF7B8FF042000F03C
:10315800CFFF0DF1060243212046FFF790FF0DF146
:10316800070248212046FFF78AFF9DF807509DF87F
:103178000620432145F00105204642F00102FFF7F1
:103188009DFF2A4648212046FFF798FF0DF10502CA
:1031980040212046FFF773FF9DF805204021204677
:1031A80002F0CF02FFF78AFF002003B030BD00BF56
:1031B800801A060070B5154604460E46017C006864
:1031C80001F074F82068C5F3002343EA4601036858
:1031D800C9B21B6898472068E9B203681B6898471A
:1031E800206801F091F90A2000F082FF002070BDEC
:1031F80038B503460446154643F8042B07C983E847
:10320800070028462D4901F037F820681B2274234F
:103218000021C0E9212301F03BFAA37900220F2104
:103228001A3320462374FFF7C5FF172200212046D2
:10323800FFF7C0FF172201212046FFF7BBFF00223E
:1032480002212046FFF7B6FF002203212046FFF7A0
:10325800B1FF122204212046FFF7ACFF002205210E
:103268002046FFF7A7FF237906212046002B14BF2D
:1032780062224222FFF79EFF07212046D4E902235B
:103288001A43637942EA4312237983F0010342EA3D
:103298008312D2B2FFF78EFF002208212046FFF7E3
:1032A80089FF002209212046FFF784FF0122092116
:1032B8002046FFF77FFF002038BD00BF801A0600B8
:1032C800F8B50D46044600211E46284617462DED42
:1032D800028BB0EE408AF0EE608A0EF0F7F8F6EE58
:1032E800007A002384ED028A28EE288A2570E3609C
:1032F800A36128EE278A2777F7EE007A667787EEAC
:10330800887AC4ED057ABDEC028B84ED017AF8BDAC
:1033180038B50D460446002128462DED028BB0EE47
:10332800408A0EF0D3F8DFED0F7AF7EE006A00233B
:10333800257084ED028A28EE278AF6EE007AE3608B
:103348004FF0804328EE278A63614FF48073C4ED01
:10335800067A86EE887AA383BDEC028B84ED017A27
:1033680038BD00BF6F12033B244B07B5D3F8D820F4
:103378000B2042F00102C3F8D8200022D3F8D8303D
:10338800114603F001030193019B03F0F5FB0B20A9
:1033980003F024FC00220C20114603F0EDFB0C2066
:1033A80003F01CFC00220D20114603F0E5FB0D2064
:1033B80003F014FC00220E20114603F0DDFB0E2062
:1033C80003F00CFC00220F20114603F0D5FB0F2060
:1033D80003F004FC00221020114603F0CDFB10205E
:1033E80003F0FCFB00221120114603F0C5FB11205D
:1033F80003B05DF804EB03F0F1BB00BF00440258D2
:103408002DE9F04104461E460023154608462DEDD9
:10341800028B63614FF6FF73B0EE408A9DF82480FB
:103428002382E274A1749DF820109DF828700EF094
:103438004DF8414628460EF049F8B0EE480A3B469A
:10344800324620460121BDEC028BBDE8F04100F078
:10345800E9BD70B50546807C0EF0D8F80446E87CD6
:103468000EF0D4F80646284600F0F0FD2B7C6A7C66
:1034780044EA430346EA42005BB242B203F00F015A
:10348800C0B22B740E2901D151070CD002F00F02E3
:103498000E2A0AD103F00703B3FA83F35B095B42F0
:1034A80068746B6170BD0123FAE70023F8E7000038
:1034B80030B583788FB00446022B21D0032B02D07D
:1034C800591E4B424B410A93E378012B03D09A1EB5
:1034D800534253415B000B93002320460C9300F0AA
:1034E800A9F80546204600F0ADF823780990082B86
:1034F80015D8DFE803F0071A28364452606E7C00BE
:103508001123E0E7414BD3F8E02042F00102C3F871
:10351800E020D3F8E03003F001030093009B09A9F1
:10352800284604F0EDFB0FB030BD384BD3F8E0204F
:1035380042F00202C3F8E020D3F8E03003F00203BF
:103548000193019BEBE7314BD3F8E02042F00402F2
:10355800C3F8E020D3F8E03003F004030293029BA1
:10356800DDE72A4BD3F8E02042F00802C3F8E02058
:10357800D3F8E03003F008030393039BCFE7234B12
:10358800D3F8E02042F01002C3F8E020D3F8E0308E
:1035980003F010030493049BC1E71C4BD3F8E0200D
:1035A80042F02002C3F8E020D3F8E03003F0200313
:1035B8000593059BB3E7154BD3F8E02042F0400292
:1035C800C3F8E020D3F8E03003F040030693069BED
:1035D800A5E70E4BD3F8E02042F08002C3F8E020C4
:1035E800D3F8E03003F080030793079B97E7074B76
:1035F800D3F8E02042F48072C3F8E020D3F8E0303A
:1036080003F480730893089B89E700BF00440258BD
:1036180070B506460D4600F00DF80446304600F039
:1036280011F82A1E0146204618BF0122BDE8704045
:1036380004F04EBC0278024B53F82200704700BFDA
:10364800BC3701084278024B33F81200704700BFBC
:103658009C37010870B504461D469DF81030164683
:1036680008462170237101216270A5700DF02EFFAC
:10367800304601210DF02AFF28460121BDE870409F
:103688000DF024BF0368C9B21B6818470023C26045
:103698000170436070470170704710B504460178A7
:1036A800C06800F003FEE06800F02EFF6060B0FA2A
:1036B80080F0400910BD70B504460E4601781546E5
:1036C800C06800F0F3FDE068314603681B6898475E
:1036D800E068294603681B689847E06800F014FF13
:1036E800606070BD10B401294FF00004446004D933
:1036F800FD225DF8044B426070475DF8044BFFF70C
:10370800DABF0021202210B504464160FFF7EAFF26
:10371800362220460121BDE81040FFF7E3BF38B547
:1037280004460021C06800F0B3FF2046FFF7B5FF4C
:10373800054610B12046FFF7E4FF284638BDF8B526
:1037480004460F4601781646C0681D4600F0AEFDD7
:10375800E068394603681B689847E068F1B2FFF7EC
:1037680091FFC6F30421E068FFF78CFFE068E9B237
:10377800FFF788FFC5F30421E068FFF783FFE068DF
:1037880000F0C2FE6060F8BD30B40F294FF00005AC
:10379800456003D9FE2330BC436070478900063179
:1037A80030BC01F0FE01FFF7CABF0000014806F077
:1037B80067BB00BF680B0424074B9A1C1B665A663C
:1037C8001A1D9A669A1DDA6603F108021A6703F150
:1037D8000A025A67704700BF580B0424D1F800C08A
:1037E800BCF1010F2DE9F043044685B00F464FF0B8
:1037F800000800F38A800E46C0F850820546C0E9EA
:1038080092880FCE0FC50FCE0FC5424B009303F51C
:1038180080630193A3F57873029303F580630393A0
:1038280004AB03EB8C0C96E803005CF8103C85E8CD
:103838000300A3625CF8083CC4F8C0303B69042B61
:1038480009D8DFE803F0033F424548004FF4FA5334
:10385800A364C4F8E030BB693A6A002B3DD1003A52
:1038680018BF0122C4E90B23FB697A6A002B3BD1FC
:10387800003A18BF012204F12800C4E931237B690A
:10388800022B9FBF244A12F80380244A12F803909F
:1038980000234246636449466363E365C4F8DC3049
:1038A800C4F8CC30C4F8F430C4E90F33C4E9153394
:1038B800C4E93533C4E93B33022308F0AFFBD0B188
:1038C800FFBEFEE74FF47A53C2E74FF4FA43BFE76F
:1038D8004BF68033BCE7124BBAE7002A4FF00103DE
:1038E80014BF03220222BDE7002A4FF0010314BFD0
:1038F80003220222BFE702234246494604F1C000E0
:1039080008F08CFB10B1FFBEFEE7012005B0BDE852
:10391800F08300BF0458014003380108003801084B
:1039280000770100026838B561BB036A00F1280519
:1039380000F5AC74013B18BF01239B01EAB91D4A8D
:10394800C0F8582157224FF480514FF48070C4E9D1
:10395800012300234FF48062C4E903324FF480420C
:103968006362C4E905124FF40032C4E90702204635
:1039780003F0BCFBD0B1FFBEFEE70F4AC0F85821E8
:103988005922E0E7436A00F1C00500F5E874013BFD
:1039980018BF01239B0122B9084AC0F8D021582238
:1039A800D1E7074AC0F8D0215A22CCE7C5E920441C
:1039B800A56338BD100002405800024028000240AC
:1039C8007000024010B4D0F854420B4664B1D0E9FC
:1039D8009312D0F8480201EB830100EB83002346E1
:1039E80052085DF8044B18475DF8044B70472DE901
:1039F800F8439CB2C0F8503283699046074689461E
:103A0800012B00F1280500F1C006C0E99212089ABE
:103A1800C0F854221BD1036A2246012B0DD1284637
:103A280008F0FEFB7B6A2246012B0BD14946304643
:103A380008F0F6FB0020BDE8F8834146284608F068
:103A480083FBEFE74146304608F07EFBF2E7436A26
:103A58002246012B09D1304608F0E2FB3B6A224698
:103A6800012B07D149462846E2E74146304608F08F
:103A78006BFBF3E741462846E6E700000269042AA3
:103A88009DBF044B03EB820393ED000A9FED020AEE
:103A9800704700BFEC37010800803B472DE9F04331
:103AA800831D8BB004460593031D069300F108039C
:103AB800079300F10A03089300F10C030993836943
:103AC80063B3C569B5FA85F56D09012302220DF1C5
:103AD800140800274FF006090393CDE9012358F88D
:103AE800046B227933789A4204D1617972789142D1
:103AF80000D16DB122689AB1012A14D03046FFF77F
:103B0800A1FD00903046FFF795FD694604F0F8F8EE
:103B18000137052FE3D10BB0BDE8F0830125D4E7C9
:103B2800CDF81090EAE733B97378022B0CBF08235D
:103B38000A230493E2E70A23FBE7000070B5036851
:103B480088B0434E0546B34202D0424A934231D12F
:103B5800414C4248D4F8E03043F01003C4F8E03058
:103B6800D4F8E03003F010030093009BD4F8F03051
:103B780043F48003C4F8F030D4F8F03003F4800341
:103B88000193019BFFF78AFFD4F8D830296843F0E6
:103B980001033248891BC4F8D830D4F8D83018BF8C
:103BA800012103F001030293029B08B0BDE87040B5
:103BB800FFF7B8BE2A4EB34202D02A4A934245D1F3
:103BC800254C2948D4F8E03043F00103C4F8E0302C
:103BD800D4F8E03003F001030393039BD4F8E030FA
:103BE80043F00803C4F8E030D4F8E03003F00803E9
:103BF8000493049BD4F8E03043F04003C4F8E03069
:103C0800D4F8E03003F040030593059BD4F8F03076
:103C180043F40003C4F8F030D4F8F03003F40003A0
:103C28000693069BFFF73AFFD4F8D830296843F08B
:103C380001030D48891BC4F8D830D4F8D83018BF10
:103C4800012103F001030793079BAEE708B070BD9D
:103C5800045801402458014000440258D00B042461
:103C6800045C0140245C01402C0E0424014803F04C
:103C780071BE00BF280D0424014803F06BBE00BFCD
:103C8800A00D0424014803F065BE00BF840F04247E
:103C9800014803F05FBE00BFFC0F042403680D4A0F
:103CA800934202D02032934206D10B4B0021184692
:103CB800C3F85812FFF786BE084A934202D0203252
:103CC800934206D10448002100F51770C0F8581235
:103CD800F0E7704704580140D00B0424045C01400D
:103CE80003680F4A934202D02032934207D10D480D
:103CF800D0F850124908C0F85812FFF763BE0A4AB4
:103D0800934202D02032934208D10648D0F8AC142E
:103D180000F517704908C0F85812EEE7704700BF61
:103D280004580140D00B0424045C014010B402463E
:103D38004FF417740868044B04FB00305DF8044B1B
:103D48001060FFF74BBD00BFD00B0424006870471C
:103D580013B5049C00940068FFF749FE002002B0E8
:103D680010BD0068FFF78ABE0368D3F85802704791
:103D78002DE9F04F3B4C89B0A06303781BB10020BC
:103D880009B0BDE8F08F20204021374A4FF0020AE1
:103D980006934FF00408E3624FF4805701254FF073
:103DA8000309C4E905014FF4C07104EB0800CDF81C
:103DB8001490C4E90123C4E9071307234FF40061F1
:103DC8000822CDE901A30A23C4E909170DEB08016C
:103DD8000793C4E90352CDE9038208F0D5FA0646F1
:103DE80000283CD14FF0100B3A460DEB080100902B
:103DF800049004EB08000195CDE902B508F0ECFA4F
:103E0800642001F0ADFF3A460DEB080104EB080011
:103E1800CDE901ABCDE9035608F0DEFA3A460DEBE1
:103E2800080104EB0800CDE9019BCDE9038608F001
:103E3800D3FA40F232230DEB08013A46009304EB23
:103E48000800009B03950493CDE9018B08F0C4FAA0
:103E580040F6060104EB080008F0DDFA8FE7284673
:103E68008EE700BF8C100424404100522DE9F04336
:103E780000238FB00B93624B1E68002E40F0BD806C
:103E88000122022703250C241A6009A95D4B5E480C
:103E9800D3F8D420DFF8889142F48052C3F8D420B4
:103EA800D3F8D42002F480520192019AD3F8E0208A
:103EB80042F01002C3F8E020D3F8E02002F010022C
:103EC8000292029AD3F8E02042F04002C3F8E020C0
:103ED800D3F8E02002F040020392039AD3F8E020DE
:103EE80042F00802C3F8E020D3F8E02002F008020C
:103EF8000492049AD3F8E02042F48072C3F8E020D8
:103F0800D3F8E02002F480720592059AD3F8E020F5
:103F180042F08002C3F8E020D3F8E02002F08002EB
:103F28000692069AD3F8E02042F02002C3F8E02077
:103F3800D3F8E02002F020020792079AD3F8E02095
:103F480042F00402C3F8E020D3F8E03003F00403A1
:103F58000893089B4FF68373CDE90C54CDE90937D4
:103F680003F0CEFE48F2371309A928480D94CDE98D
:103F78000937CDE90B6503F0C3FE4CF2037309A9B9
:103F880023480D94CDE90937CDE90B6503F0B8FE58
:103F980040F2FF6309A91F480D94CDE90937CDE91F
:103FA8000B6503F0ADFE4FF60C7309A91A480D9482
:103FB800CDE90937CDE90B6503F0A2FE4FF63F03C3
:103FC80009A916480D94CDE90937CDE90B6503F029
:103FD80097FED9F838000130FFF72CFB8046D9F856
:103FE80038000130FFF72EFB09A90D94CDE9090728
:103FF8004046CDE90B6503F083FE0FB0BDE8F083C2
:10400800881004240044025800100258001802586E
:10401800000C025800200258001C025800140258D4
:104028008C100424B7EE007A10B4C7EE007A044668
:104038001046002221701946227300226073A26084
:10404800C4ED017A5DF8044B0DF040BA10B5044692
:10405800407B0DF0DBFA237B22785B005BB26AB110
:10406800C2B2B2FA82F252091343DBB2A3F17F0261
:104078002373012A04D80023A36010BD42B2F3E7DA
:10408800FF2B01BFD4ED027A94ED017A77EE877A9F
:10409800C4ED027AF1E700001FB502F0D3FD4FF03E
:1040A8004052124B01246846ADF80040CDE9012387
:1040B8004FF48073039302F0E3FD002340F20112F2
:1040C80068468DF801408DF80D308DF80A301923B7
:1040D800ADF80E208DF808304FF04043019302F000
:1040E800CFFD042002F0BCFD04B010BD0E0001039A
:1040F80001F036BE014B00221A607047C810042434
:10410800028BC08A101A7047C28A0346018B9142FB
:1041180083BF0169885C01324FF0FF3088BFDA82C3
:104128007047028BC38A9A4286BF0269D05C4FF0FF
:10413800FF307047806DD0F8DC302BB10023D430CD
:1041480020F8B23CC36818477047836810B5044626
:1041580013B1032201469847204610BD70B54FF4AD
:104168007A730E46002115462C4A0446C0E901130D
:10417800034643F8C42B9C22C0F8C410C3E90111BC
:10418800C0E93411C0E93611C0F8E01028300DF04C
:104198001BFDF3B2202B19D8214A06F4E06652F829
:1041A80023301E43EBB2C4F88460202B22D81C4A6B
:1041B80005F4E06552F823301D4300232046C4F877
:1041C8008850E36123842361A38270BD06F0C00296
:1041D800C02A0CD1CB2B0AD806F03F02114B06F4AB
:1041E800E06653F822200E4B53F82230D9E74FF0FF
:1041F800FF36D7E705F0C002C02A0CD1CB2B0AD86E
:1042080005F03F02074B05F4E06553F82220044B04
:1042180053F82230D0E74FF0FF35CEE710380108C9
:104228007C6901084C69010838B50446283000F05B
:1042380063FBE06918B10DF0DBFB0023E3610025A7
:104248002069258410B10DF0D3FB2561A58238BD06
:1042580038B5084B0546044645F8D43BFFF7E4FF5C
:104268002846FFF772FF04F1C400FFF76EFF2046EF
:1042780038BD00BF1038010838B500F128050446DC
:10428800284600F0B1FB94F8BE304BB928460549E2
:1042980000F096FC28460449BDE8384000F089BC87
:1042A80038BD00BF3D410008F9420008012399408C
:1042B80080F8243000238176438470470123994095
:1042C80080F82430002381764384704738B5838A88
:1042D80005460C468B4209D22029006938BF2024A4
:1042E80021460DF03BFC10B12861AC8238BDFEE7D9
:1042F80073B5846D0546866ED4F8CC30E3B1E28A96
:10430800238B9A4218D331462046FFF7DFFF324607
:1043180005F1740120690DF09BFC00232683E382DC
:10432800D4F8CC3001960BB90EF070FFD4F8D03029
:1043380001A904F1C400984702B070BDB1F5806FBF
:1043480070B505460C4610D8038C99420AD9202925
:104358000E46C06938BF202631460DF0FFFB18B164
:10436800E8612E84204670BDFEE70024FAE713B505
:1043780090F8243004468DF807107BB1418C013148
:10438800FFF7DCFF40B1638C01209DF80710E2695C
:10439800D154638C0133638402B010BD01220DF146
:1043A8000701283000F034FBB0FA80F04009F3E749
:1043B80070B590F8243004460E46154693B1418CEA
:1043C8001144FFF7BBFF10B90025284670BD638C68
:1043D8002A46E069314618440DF03AFC638C2B44B8
:1043E8006384F2E792B2283000F012FB0028EBD188
:1043F800EBE70346006918B19A8A00210DF0E4BB87
:1044080070470346C06918B11A8C00210DF0DCBB57
:10441800704738B50446C9B9AA23A36594F8BE30D5
:10442800012B16D1638C04F12800E269A17E00F00B
:104438006FFB042828BF0420C5B22046FFF7E1FF20
:104448000023638484F82430284638BD4FF42A4377
:10445800E3E70425F8E72DE9F04790F8BEA0044605
:104468000F461546BAF1010F98469DF820609DF851
:10447800249039D17F001146FFF728FFFFB286B19B
:10448800032E4FF0000384F824A028BF0326A77644
:104498006384013EF6B2FF2E1AD100212046FFF7B1
:1044A800B8FFB9F1000F1CD1AA23A36539462B46E2
:1044B800226904F128002E4600F0C4FA002398422D
:1044C800E3821CBF1D462E4628462683BDE8F0879A
:1044D800F1002368204628FA01F11B68C9B2984701
:1044E800D7E74FF42A43E0E70020EFE707B5019349
:1044F80000230093FFF7AFFF03B05DF804FB01232F
:10450800D2B2C9B2FFF7F2BF0121FFF782BF38B5B7
:1045180000250446C5820583FFF76BFF20466584A6
:10452800FFF76FFF38BD00002DE9F0410446D0F8D1
:1045380084000CF009FF00210CF0C8FFD4F8843087
:10454800C3F303120A2A44D8264D03F00F03264F5B
:1045580055F8222057F82330126993433FD0D4F8F6
:1045680088000CF0F1FE01210CF0B0FF1F4BD4F8CD
:1045780088001B681E4CC0F3031100F00F02B3FB48
:10458800F4F30A24A14204FB03F325D857F8227058
:104598001426184A4FEA074E55F821C0CCF818E0FF
:1045A800D2F804805468A4EB0804A342FADCCCF8DF
:1045B8001870D2F804C05468A4EB0C04A342FADCC7
:1045C800013EE9D10CF0C0FE3146BDE8F0410CF0E7
:1045D8007DBF00231B69FFDE00239B61FBE7BDE86D
:1045E800F08100BF10000024AC63010868000024BB
:1045F80040420F00001000E02DE9F041002604467B
:104608001F460D46C68290460683FFF7F2FE2046F7
:104618006684A676FFF7F5FED4F8DC30C4F880404F
:1046280033B104F1D401032208469847C4E9376638
:104638000023204684F8BF8084F824306B0084F877
:10464800C07084F825306B1E5D425D4184F8BE5011
:1046580004F12805FFF768FF94F825200949284642
:1046680000F048F894F8BE304BB92846064900F0E7
:10467800A7FA28460549BDE8F04100F09ABABDE816
:10468800F08100BFA08601003D410008F942000802
:104698000A4600230121FFF7AFBF00000B220C21BF
:1046A8000148FFF75BBD00BFCC1004240148FFF7A9
:1046B800CFBD00BFCC100424084B0246984208D94D
:1046C800074B984207D9074907488A4288BF002004
:1046D8007047064870470648704700BFA08601002B
:1046E800801A060040420F001A0980108A62E030E2
:1046F8003211D020F0B50E4685B015460446002884
:1047080000F0DF807049C06D0AF056FA07466F491D
:10471800206E0AF051FA0146002F00F0D2800028DE
:1047280000F0CF8038460AF06EFA2060002800F0CA
:10473800C880674B271D98425AD1664BD3F8E820AA
:1047480042F40012C3F8E820D3F8E82002F400127B
:104758000092009AD3F8902042F40012C3F89020F7
:10476800D3F8902022F40012C3F890205A4B6366C5
:104778005A4B1F605549206E0AF006FA5249E06DFF
:104788000AF002FA236830466360FFF795FF0123B9
:104798000221C4E902050025B4F96400C4E904351E
:1047A80094F897302A46A5615B1B84F8455018BFDA
:1047B8000123DB04236294F898305B1B18BF0123A4
:1047C8005B04636202F0D8F9B4F9640002F006FAF7
:1047D8002A460221B4F9660002F0CEF9B4F966005F
:1047E80002F0FCF9384603F0DCFC002865D0FEE74F
:1047F8003B4B98421DD1374BD3F8E82042F4800256
:10480800C3F8E820D3F8E82002F480020192019A64
:10481800D3F8902042F48002C3F89020D3F8902077
:1048280022F48002C3F890202E4B63662B4B5F6006
:10483800A0E72D4B98421DD1264BD3F8E82042F42F
:104848000002C3F8E820D3F8E82002F4000202923C
:10485800029AD3F8902042F40002C3F89020D3F8CB
:10486800902022F40002C3F89020204B63661B4B73
:104878009F607FE71E4B98427FF47CAF03F50A33B5
:10488800D3F8F42042F08002C3F8F420D3F8F420DF
:1048980002F080020392039AD3F89C2042F080022F
:1048A800C3F89C20D3F89C2022F08002C3F89C20F7
:1048B800104B6366094BDF605CE70223A06684F84F
:1048C800953005B0F0BD00BFBC360108743601084C
:1048D80000540040004402581F002000B011042476
:1048E8000058004021002200005C004048004900B8
:1048F800001C00585F00600010B50446B0F9640061
:1049080002F07AF9B4F9660002F076F9201D03F096
:104918009EFC0321206E0AF0A5F80321E06D0AF041
:10492800A1F823682B4A934213D12B4BD3F890203C
:1049380042F40012C3F89020D3F8902022F4001219
:10494800C3F89020D3F8E82022F40012C3F8E82036
:1049580010BD224A934211D11F4BD3F8902042F444
:104968008002C3F89020D3F8902022F48002C3F884
:104978009020D3F8E82022F48002E7E7184A93420F
:1049880011D1154BD3F8902042F40002C3F89020BF
:10499800D3F8902022F40002C3F89020D3F8E8203E
:1049A80022F40002D2E70F4A9342D1D10A4BD3F83E
:1049B8009C2042F08002C3F89C20D3F89C2022F06F
:1049C8008002C3F89C20D3F8F42022F08002C3F8B8
:1049D800F420BDE70054004000440258005800404D
:1049E800005C0040001C005810B504460846FFF75C
:1049F80063FE6268136823F001031360A060201D42
:104A080003F0CFFB6268136843F00103136010BD25
:104A1800202A30B514D800239CB2A24207D890F8B7
:104A280094301344DBB280F89430002030BD90F805
:104A38009440CD5C1C440133044484F87450EBE783
:104A48000120F3E72DE9F34705460F4690469946BE
:104A5800002401F07FF90435D5F82CA006464B4612
:104A6800424639462846CDF800A003F0FBFC022850
:104A780006D101F06FF9841B642CF0D906201FE0E1
:104A880008BB01F067F90646284604F03FFC2028D9
:104A980009D0632C07D801F05DF9841B284604F07F
:104AA80038FC0028F0D0284604F033FC632C0CD8DE
:104AB80082060AD443070AD4003818BF01208000B0
:104AC80002B0BDE8F0870420FAE70520F8E70320E4
:104AD800F6E710B564230446043003F0D1FB02283E
:104AE80010D0032806D090B194F84530202B18BF79
:104AF800042004E094F84530202B18BF052008BF97
:104B0800022004E094F84530202B18BF062010BD81
:104B18002DE9F3471F4604460E46914601F01AF95F
:104B280080463FB901223146204602B0BDE8F04731
:104B3800FFF7CFBFD4F830A0002504343B464A46DF
:104B480031462046CDF800A003F022FC022807D108
:104B580001F000F9A0EB0805642DEFD906201FE04D
:104B680008BB01F0F7F80646204604F0CFFB2028E2
:104B780009D0632D07D801F0EDF8851B204604F015
:104B8800C8FB0028F0D0204604F0C3FB632D0CD8E6
:104B980082060AD443070AD4003818BF01208000CF
:104BA80002B0BDE8F0870420FAE70520F8E7032003
:104BB800F6E720B119B1C166043003F069BD70474A
:104BC80020B119B10167043003F062BD704770B5B8
:104BD80090F8913004460E46051F012B09D1436E0B
:104BE8003BB1836E28469847022384F8913000230E
:104BF8006366012E4FF0000312D1E26E84F8913003
:104C08001AB1284684F89030904794F8902004F11F
:104C1800700120464FF00073BDE8704003F074BC8B
:104C28000122636620464FF0807384F89120616EFC
:104C380074312944BDE8704003F0C8BC10B590F841
:104C480091300446012B04D1436E13B1836E0438AE
:104C580098470223204684F8913000236366BDE814
:104C6800104003F015BD436E1F2B02DC436E013369
:104C7800436690F89130012BDAB206D1416E4FF0BD
:104C880080737031014403F0A1BC7047002380F8A1
:104C98009030704790F892300BB903F0F9BC704728
:104CA800014B186803F008BDB0110424014B1868C3
:104CB80004F09BB8B0110424014B586803F0FCBC05
:104CC800B0110424014B586804F08FB8B0110424C3
:104CD800014B986803F0F0BCB0110424014B9868AC
:104CE80004F083B8B0110424054B10B5DC682046E5
:104CF80003F0E2FC2046BDE8104004F076B800BF9F
:104D0800B0110424014BD86804F06FB8B011042422
:104D18002D2970B50446154609D8272974D929398B
:104D2800042917D8DFE801F03B2A2A2C3F00A1F11B
:104D38004C03012B48D93F2966D901F03F03C2181B
:104D480092F82C60FF2E19D011F0300F4FD1294660
:104D5800304645E02B34002314F8010F5D1CFF2872
:104D680009D00F2B04D801210CF0B0FBEBB2F3E70C
:104D780002210CF0ABFBEBB2162BEDD1012070BD7C
:104D8800224B002D22491B68224A4868B3FBF2F3E4
:104D980008BF00234A68121A9342FBDCEEE710466C
:104DA8000CF072FCEAE7194B022A1A4C1B688CBFFC
:104DB800022205221649B3FBF4F3486853434A68B4
:104DC800121A9342FBDCD9E701F03F010C4494F836
:104DD8002C0042B901210CF079FB294694F82C00EB
:104DE8000CF0DEFBCAE702210CF070FBC6E7102BC3
:104DF80001D10CF016FA30460CF008FC003818BF48
:104E0800012084F82700B9E70020B8E768000024EB
:104E1800001000E040420F0000F020BD80F835305F
:104E28009DF8003080F82C1080F836309DF804305A
:104E380080F82D2080F83730704703682DE9F74354
:104E4800044690F8509090F85170002693F811801D
:104E58002368F5B2E06C57FA86F21B7C0135D2B2B2
:104E680013FB06F1EDB2C90089B208440021009095
:104E7800204600F0A6FEA94504D90136BB19DBB2CD
:104E88009845E5D803B0BDE8F083036800211A7C93
:104E980090F85030C06C5A43D2000CF095BE10B553
:104EA8000446FFF7CAFF2046BDE8104000F0B4BE34
:104EB800836C10B5044680F851101B689847A36CA2
:104EC80020465B68BDE81040184710B590F8AB3035
:104ED80004460BB1FFF7D9FF20460021BDE810407A
:104EE800FFF7E6BF38B50446FFF7A7FF94F8503040
:104EF80094F851501D442368EDB25B7CAB4204D852
:104F0800204600F089FE002038BD94F8AB3013B17C
:104F18002046FFF7BAFF20462946FFF7C9FF0120C0
:104F2800F2E710B50446FFF7D0FF2046FFF7DAFF97
:104F380001460028F9D12046BDE81040FFF7B8BF68
:104F48000823037000487047C011042430B585B0A9
:104F580004460D46094900931346094A00F086FEA7
:104F68000DF10F00FFF7ECFF064B01469DF80F20EF
:104F78002046009500F028FC05B030BDF55A000821
:104F8800075A000851560008405A40BA80B2704784
:104F98000020704708B50A46097803460170517821
:104FA800417091788170D178C1701179017151790E
:104FB800417191798171D179C171117A0172517AF6
:104FC8004172917A8172D17AC172117B0173517BDE
:104FD8004173917B8173D17BC173117C0174112161
:104FE8001046FFF7D1FF132158821046FFF7CCFF78
:104FF800152198821046FFF7C7FFD88208BD70B503
:10500800047B036862181D78D2B22541072A07D8A5
:10501800EBB202734FF0FF30884023EA000070BD06
:105028005E1CC4F10804083AE4B206605B78D2B2A8
:10503800A3402B43DBB2ECE738B5002300F1780539
:105048000446816780F8843090F890102846FFF76E
:10505800D6FF94F8911084F882002846FFF7CFFF16
:1050680094F8AA3084F8830084F88630B3FA83F37E
:105078005B0984F8873038BD10B54C1EFFF7BFFFB9
:105088000123E4B2A340C01A40B210BD012B05D0E1
:10509800022B05D033B9104480B270470844FBE7AF
:1050A800801AF9E7401AF7E7012B05D0022B05D043
:1050B80033B9084480B27047801AFBE7401AF9E711
:1050C8001044F7E72DE9F04F044687B00E4690F8F4
:1050D800805090F88170059294F882A04FFA87F971
:1050E800B4F87E3069B2AAEB05084A460493B34681
:1050F8005FFA88F894F88830B4F87C00464528BFF1
:10510800C346FFF7D1FF03900498FFF7BFFF059947
:105118000246A1B194F8861084F8AA10204600939C
:105128005B46039900F0FFF935444645EDB20DD3CF
:10513800A5EB0A050137EEB20025FFB2CCE794F8DB
:1051480085100029F0D194F88710E5E784F880509D
:1051580084F8819007B0BDE8F08F2DE9F347044645
:1051680000F17808FFF768FF94F89210404694F928
:105178008370FFF781FF94F8931082464046FFF74B
:105188007BFF94F8941006464046FFF775FF94F9A4
:1051980082508146002D4ADDBA1994F8883051466C
:1051A800B4F87C00524252B2FFF77EFFA4F87C00AC
:1051B8000646B4F87E00FFF769FF0246A4F87E00B1
:1051C800032B57D8DFE803F00237404D3544C119A7
:1051D800ABB289B200912046314600F01DFA30B3D7
:1051E8000023A4F8803094F88E104046FFF707FF9C
:1051F80094F88F1006464046FFF701FF0546002247
:1052080031462046FFF75EFF294620460122FFF778
:1052180059FF01214046FFF7F2FE0028EFD194F92B
:105228008130BB42DFDB94F8863084F8AA304846E8
:1052380002B0BDE8F087C7F10100731C5119304472
:105248009BB289B286B2C5E7C5F10105C7F1010075
:10525800731C511C354410449BB289B282B2AEB261
:10526800B8E7C5F10105F319411C05449BB289B2A1
:10527800AAB2AFE701463346ACE7036FFF290A46F7
:1052880003F1170310B512D8602909D9B0F8A01096
:105298000B44587818B11978914206D1981C10BD62
:1052A8004029F6D9B0F89E10F2E70344F1E7B0F8C8
:1052B800A2100B441C4600212046FFF765FE022180
:1052C80003442046FFF760FE824204F10404F2D84A
:1052D800188841BA89B20028E1D08A4201D1D81C85
:1052E800DDE799780B44F3E738B50446FFF7C5FFC7
:1052F8000146B8B104F178052046FFF79DFE94F801
:1053080092102846FFF7B8FE94F8931084F8A80086
:105318002846FFF7B1FE94F894102846BDE83840B7
:10532800FFF7AABE38BD2DE9F047884600256FF083
:105338003F074FF6FF7908F1FF382C464FF6FE7A03
:1053480080F88250064600F068FA18F8011F3046C7
:1053580073689847484501460DD05045F5D030460A
:10536800FFF7C2FF17F1400F85B208BF96F9A87082
:105378002C44A4B2E9E796F9822052B196F9A830F4
:10538800002F13442344A3EB05039CB2C4BF3F1969
:10539800BCB22046BDE8F08780F885107047F8B5A4
:1053A8001F4690F8883004460E461546032B07D84A
:1053B800DFE803F002151A1E436F9847284485B2A8
:1053C80039462046A4F87C60A4F87E50FFF755FFC4
:1053D800014618B12046FFF7C0FE80B2F8BD436F02
:1053E8009847301A86B2EBE7436F9847281AE6E7E2
:1053F800436F98473044F5E72DE9F0471E464FF0D4
:10540800000A4FF6FF784FF6FE79013E07460C4634
:10541800154600F002FA7B68384616F8011F9847CF
:10542800404503461BD04845F5D02A462146384614
:10543800FFF7B5FF97F88830032B05D8DFE803F0AE
:1054480002080B0D0444A4B250441FFA80FAE2E7A4
:105458000544ADB2F8E7241AF5E72D1AF9E75046E6
:10546800BDE8F08710B4034C44605DF8044BFFF7C7
:10547800C3BF00BF13580008036F10B5CBB190F934
:10548800994090F99A1090F8A53080F8A64080F8D5
:10549800A71073B1012B0DD190F99B30A342B8BF6F
:1054A800234680F8A63090F99C30994201DD80F8B7
:1054B800A73010BD90F9982090F9963013449C427B
:1054C800B8BF80F8A6309142C8BF80F8A720F0E79F
:1054D800014B4367704700BF994F0008026F8A422B
:1054E80010B5044608D001678C30FFF753FD2046FD
:1054F800BDE81040FFF7C0BF10BD0000014B43607E
:10550800FFF711BF1358000880F88810704770B46F
:10551800B0F856609DF80C50921B446C0395A44655
:1055280092B270BC604770B490F8A4509DF80C40DB
:10553800002D5CD0002B5AD0012B52D0022C29D13F
:105548000131C91A89B2B0F8644094424FD8B0F812
:10555800664094424BD90B44B0F86060B0F8625092
:105568009CB28C4241D28D423ED96C1EA4B2A64256
:105578003DD2B14238BF3146A54294BFC1EB0503C5
:10558800C1EB040300249BB2856C0394AC68A44669
:1055980070BC6047032C24D10132D21A92B2B0F801
:1055A80060408C4223D8B0F862408C421FD9134423
:1055B800B0F86460B0F866509CB294421AD2954232
:1055C80017D96C1EA4B2A64211D2B24238BF3246D5
:1055D800A54294BFC2EB0503C2EB040301249BB2AE
:1055E800D2E7E407DBD4AEE731468D42BFD870BCC2
:1055F800704732469542E6D8F9E78A4206D2834296
:1056080008D89A4294BF0020012070478342F8D8F6
:10561800002070470120704770B504460D461E46AD
:10562800B0F86610BDF81030B0F86400FFF7E5FF79
:1056380048B133462A46B4F86210B4F86000BDE8B1
:105648007040FFF7DABF70BDF0B58C4602F0070670
:10565800012490F8AA109DF81470B4400129E4B20E
:1056680018D8254600D1002422F00702016892B21A
:10567800097C11FB02F1C26C89B2614411445FB923
:105688000A78013B2A439BB2624001F8012B002BA8
:10569800F6D1F0BD0025E7E70A780136013B2A4339
:1056A80016F007069BB282EA04020A700BD1B0F822
:1056B8005220114490F8AA20012A09D80AD1154687
:1056C800002BE9D1E5E76D006400EDB2E4B2F7E73D
:1056D8000124F5E701242546F2E790F85010026806
:1056E800CB0070B5A0F85430137C90F85150DB0013
:1056F8004E19A0F85230EB00A0F85630547CA0F8B0
:105708005830A642C4BF641BA1B203EBC103A0F882
:105718005A30938AA0F85C30D38AA0F85E3070BD06
:10572800FFF7DBBF10B49DF8044001945DF8044B0B
:10573800FFF7EDBEB0F86E3013B500930446B0F82D
:105748006A30B0F86C20B0F86810FFF765FF18B938
:1057580084F8A40002B010BD0123B4F8602084F8D6
:10576800A430B4F868309A42B4F8622038BFA4F87C
:105778006030B4F86A309A42B4F8642088BFA4F85C
:105788006230B4F86C309A42B4F8662038BFA4F896
:105798006430B4F86E309A4288BFA4F86630D9E70E
:1057A8000022A0F86020B0F85C20A0F86220826D8A
:1057B8004266FFF7BFBF0000024A836CC0E91A22A5
:1057C8005B6818470000FFFF70B5049E002543641E
:1057D80040F20113044680F85020C16480F851500B
:1057E80080F8855080F8A55080F8A950A0F8AA3014
:1057F80005673368866498472046FFF7DDFF204633
:10580800FFF766FE84F8885070BD4FF6FF7019B137
:105818000A2918BF084670477047002380F82630C9
:10582800704710B404690A4600232021A4465DF895
:10583800044B604710B4046913460A461721A4466E
:105848005DF8044B604707B58DF807100DF10702A6
:105858000121FFF7EFFF03B05DF804FB14392DE9D0
:10586800F04704461E4600680C2968D8DFE801F0B6
:1058780040676707505D6767676767674E0090F81E
:105888000C80B51808F0010888F00109AE4202D171
:105898000120BDE8F08716F801AB08271AF0800F41
:1058A8004FF04101204607F1FF3714BF01220022C3
:1058B80000F0BBF94A464021204600F0B6F92368BB
:1058C8002C2120469A794FEA4A0A00F0AEF942465E
:1058D8004021204600F0A9F923682C212046DA79D6
:1058E8005FFA8AFA00F0A1F917F0FF07D6D1CDE7E1
:1058F80042784921204600F098F9236840211A7B14
:1059080002F00102204600F090F9C1E74A21F9E7C8
:1059180002784921204600F088F922686569002349
:1059280092782C212046A847B2E7C27800232C2180
:1059380065692046A847236849215A78E2E700208C
:10594800A7E710B4C4680A4600231521A4465DF8E9
:10595800044B604710B4C4680A4600231621A446C5
:105968005DF8044B604710B4C46813460A46172113
:10597800A4465DF8044B604710B40023C46818219E
:10598800A4461A465DF8044B604710B40023C46867
:105998001921A4461A465DF8044B604773B50546BD
:1059A8000C462178192906D8172921D816D0142988
:1059B8000BD802B070BDFE29FBD162782921284698
:1059C8008DF8072000F031F906E062780023EE68D0
:1059D80028468DF80720B0470234E2E763780DF1D6
:1059E8000702012128468DF80730FFF7BCFFF3E7CF
:1059F8000023EE68284601341A46B047D1E72DE95E
:105A0800F0411F46A1F1140304460D461646052B26
:105A18001BD8DFE803F01003030D10100021FFF777
:105A280000FF31462046FFF70EFF0120BDE8F08158
:105A38000121FFF7F6FED4F810E03B46324629462E
:105A48002046F446BDE8F04160470020EEE700003C
:105A58000E29F8B5044615461E4638D00F2903D03E
:105A68000B292DD00020F8BDFFF786FF737994F835
:105A78002210204601EBC30101F0FF07C1F3031117
:105A880041F01001FFF75DFF07F00F012046FFF717
:105A980058FFB179204641F0B001FFF752FF317944
:105AA800013D32682046C90001F0F801FFF75BFFAD
:105AB80015F0FF05F3D12046FFF767FF0120D2E775
:105AC8001AB90849FFF76AFFF8E70749FAE7FFF745
